:100000000C9434000C943E000C943E000C943E0082
:100010000C943E000C943E000C943E000C943E0068
:100020000C943E000C943E000C943E000C943E0058
:100030000C943E000C943E000C943E000C943E0048
:100040000C943E000C943E000C943E000C943E0038
:100050000C943E000C943E000C943E000C943E0028
:100060000C943E000C943E0011241FBECFEFD8E04C
:10007000DEBFCDBF0E9440000C9458000C940000DD
:1000800081E084B915B885B92FEF38E09DE32150A0
:1000900030409040E1F700C0000015B82FEF38E085
:1000A0009DE3215030409040E1F700C00000EBCFCD
:0400B000F894FFCFF2
:00000001FF
