:100000000C9434000C9446000C9446000C9446006A
:100010000C9446000C9446000C9446000C94460048
:100020000C9446000C9446000C9446000C94460038
:100030000C9446000C9446000C9446000C94460028
:100040000C9467000C9446000C9446000C944600F7
:100050000C9446000C9494000C9446000C944600BA
:100060000C9446000C94460011241FBECFEFD8E03C
:10007000DEBFCDBF21E0A0E0B1E001C01D92A43001
:10008000B207E1F70E945A000C945D010C94000045
:10009000EAE7F0E0808180648083089585E48093BE
:1000A0007C008FE880937A0080E280937E000E943B
:1000B0004800089580E48AB983E884BD81E0809394
:1000C0006E000E944E00789485E085BDFFCF1F92A0
:1000D0000F920FB60F9211242F933F934F935F937C
:1000E0006F937F938F939F93AF93BF93EF93FF9300
:1000F00060910001709101018091020190910301D2
:100100000E94C80067BDFF91EF91BF91AF919F9191
:100110008F917F916F915F914F913F912F910F90B0
:100120000FBE0F901F9018951F920F920FB60F924F
:1001300011242F933F934F935F936F937F938F93EC
:100140009F93AF93BF93EF93FF936091780070916B
:10015000790080E090E00E94F700609300017093C6
:10016000010180930201909303010E944800FF91D6
:10017000EF91BF91AF919F918F917F916F915F911F
:100180004F913F912F910F900FBE0F901F90189598
:100190000E943C0188F09F5798F0B92F9927B751DA
:1001A000B0F0E1F0660F771F881F991F1AF0BA951B
:1001B000C9F714C0B13091F00E945601B1E0089522
:1001C0000C945601672F782F8827B85F39F0B93F14
:1001D000CCF3869577956795B395D9F73EF49095CE
:1001E0008095709561957F4F8F4F9F4F0895E8944C
:1001F00009C097FB3EF490958095709561957F4F6F
:100200008F4F9F4F9923A9F0F92F96E9BB2793951C
:10021000F695879577956795B795F111F8CFFAF42C
:10022000BB0F11F460FF1BC06F5F7F4F8F4F9F4F5D
:1002300016C0882311F096E911C0772321F09EE8BB
:10024000872F762F05C0662371F096E8862F70E021
:1002500060E02AF09A95660F771F881FDAF7880FFB
:100260009695879597F9089557FD9058440F551F17
:1002700059F05F3F71F04795880F97FB991F61F028
:100280009F3F79F087950895121613061406551F9F
:10029000F2CF4695F1DF08C0161617061806991F0B
:1002A000F1CF86957105610508940895E894BB2700
:0E02B00066277727CB0197F90895F894FFCFC2
:00000001FF
